{
  "contractName": "Voting",
  "abi": [
    {
      "inputs": [],
      "stateMutability": "nonpayable",
      "type": "constructor"
    },
    {
      "anonymous": false,
      "inputs": [
        {
          "indexed": true,
          "internalType": "address",
          "name": "user",
          "type": "address"
        },
        {
          "indexed": false,
          "internalType": "uint256",
          "name": "amount",
          "type": "uint256"
        }
      ],
      "name": "FreeTokensClaimed",
      "type": "event"
    },
    {
      "anonymous": false,
      "inputs": [
        {
          "indexed": false,
          "internalType": "uint256",
          "name": "newAmount",
          "type": "uint256"
        }
      ],
      "name": "FreeTokensUpdated",
      "type": "event"
    },
    {
      "anonymous": false,
      "inputs": [
        {
          "indexed": true,
          "internalType": "address",
          "name": "owner",
          "type": "address"
        },
        {
          "indexed": false,
          "internalType": "uint256",
          "name": "amount",
          "type": "uint256"
        }
      ],
      "name": "FundsWithdrawn",
      "type": "event"
    },
    {
      "anonymous": false,
      "inputs": [
        {
          "indexed": true,
          "internalType": "address",
          "name": "previousOwner",
          "type": "address"
        },
        {
          "indexed": true,
          "internalType": "address",
          "name": "newOwner",
          "type": "address"
        }
      ],
      "name": "OwnershipTransferred",
      "type": "event"
    },
    {
      "anonymous": false,
      "inputs": [
        {
          "indexed": true,
          "internalType": "uint256",
          "name": "proposalId",
          "type": "uint256"
        },
        {
          "indexed": true,
          "internalType": "address",
          "name": "proposalOwner",
          "type": "address"
        },
        {
          "indexed": false,
          "internalType": "string",
          "name": "description",
          "type": "string"
        }
      ],
      "name": "ProposalCreated",
      "type": "event"
    },
    {
      "anonymous": false,
      "inputs": [
        {
          "indexed": false,
          "internalType": "uint256",
          "name": "newFee",
          "type": "uint256"
        }
      ],
      "name": "ProposalFeeUpdated",
      "type": "event"
    },
    {
      "anonymous": false,
      "inputs": [
        {
          "indexed": true,
          "internalType": "uint256",
          "name": "proposalId",
          "type": "uint256"
        },
        {
          "indexed": false,
          "internalType": "bool",
          "name": "isApproved",
          "type": "bool"
        }
      ],
      "name": "ProposalFinalized",
      "type": "event"
    },
    {
      "anonymous": false,
      "inputs": [
        {
          "indexed": true,
          "internalType": "uint256",
          "name": "proposalId",
          "type": "uint256"
        }
      ],
      "name": "ProposalRemoved",
      "type": "event"
    },
    {
      "anonymous": false,
      "inputs": [
        {
          "indexed": false,
          "internalType": "uint256",
          "name": "newPrice",
          "type": "uint256"
        }
      ],
      "name": "TokenPriceUpdated",
      "type": "event"
    },
    {
      "anonymous": false,
      "inputs": [
        {
          "indexed": true,
          "internalType": "address",
          "name": "user",
          "type": "address"
        },
        {
          "indexed": false,
          "internalType": "uint256",
          "name": "amount",
          "type": "uint256"
        }
      ],
      "name": "TokensPurchased",
      "type": "event"
    },
    {
      "anonymous": false,
      "inputs": [
        {
          "indexed": true,
          "internalType": "uint256",
          "name": "proposalId",
          "type": "uint256"
        },
        {
          "indexed": true,
          "internalType": "address",
          "name": "voter",
          "type": "address"
        },
        {
          "indexed": false,
          "internalType": "bool",
          "name": "inFavor",
          "type": "bool"
        }
      ],
      "name": "Voted",
      "type": "event"
    },
    {
      "inputs": [],
      "name": "QUORUM",
      "outputs": [
        {
          "internalType": "uint256",
          "name": "",
          "type": "uint256"
        }
      ],
      "stateMutability": "view",
      "type": "function",
      "constant": true
    },
    {
      "inputs": [],
      "name": "contractOwner",
      "outputs": [
        {
          "internalType": "address payable",
          "name": "",
          "type": "address"
        }
      ],
      "stateMutability": "view",
      "type": "function",
      "constant": true
    },
    {
      "inputs": [
        {
          "internalType": "uint256",
          "name": "",
          "type": "uint256"
        },
        {
          "internalType": "address",
          "name": "",
          "type": "address"
        }
      ],
      "name": "hasVoted",
      "outputs": [
        {
          "internalType": "bool",
          "name": "",
          "type": "bool"
        }
      ],
      "stateMutability": "view",
      "type": "function",
      "constant": true
    },
    {
      "inputs": [],
      "name": "proposalFee",
      "outputs": [
        {
          "internalType": "uint256",
          "name": "",
          "type": "uint256"
        }
      ],
      "stateMutability": "view",
      "type": "function",
      "constant": true
    },
    {
      "inputs": [],
      "name": "proposalId",
      "outputs": [
        {
          "internalType": "uint256",
          "name": "",
          "type": "uint256"
        }
      ],
      "stateMutability": "view",
      "type": "function",
      "constant": true
    },
    {
      "inputs": [
        {
          "internalType": "uint256",
          "name": "",
          "type": "uint256"
        }
      ],
      "name": "proposals",
      "outputs": [
        {
          "internalType": "address",
          "name": "proposalOwner",
          "type": "address"
        },
        {
          "internalType": "string",
          "name": "description",
          "type": "string"
        },
        {
          "internalType": "uint256",
          "name": "votingPeriod",
          "type": "uint256"
        },
        {
          "internalType": "uint256",
          "name": "votesInFavor",
          "type": "uint256"
        },
        {
          "internalType": "uint256",
          "name": "votesAgainst",
          "type": "uint256"
        },
        {
          "internalType": "uint256",
          "name": "noOfVoters",
          "type": "uint256"
        },
        {
          "internalType": "bool",
          "name": "isApproved",
          "type": "bool"
        },
        {
          "internalType": "bool",
          "name": "isFinalized",
          "type": "bool"
        }
      ],
      "stateMutability": "view",
      "type": "function",
      "constant": true
    },
    {
      "inputs": [],
      "name": "tokenPrice",
      "outputs": [
        {
          "internalType": "uint256",
          "name": "",
          "type": "uint256"
        }
      ],
      "stateMutability": "view",
      "type": "function",
      "constant": true
    },
    {
      "inputs": [
        {
          "internalType": "address",
          "name": "",
          "type": "address"
        }
      ],
      "name": "tokens",
      "outputs": [
        {
          "internalType": "uint256",
          "name": "",
          "type": "uint256"
        }
      ],
      "stateMutability": "view",
      "type": "function",
      "constant": true
    },
    {
      "inputs": [],
      "name": "getContractBalance",
      "outputs": [
        {
          "internalType": "uint256",
          "name": "",
          "type": "uint256"
        }
      ],
      "stateMutability": "view",
      "type": "function",
      "constant": true
    },
    {
      "inputs": [],
      "name": "claimFreeTokens",
      "outputs": [],
      "stateMutability": "nonpayable",
      "type": "function"
    },
    {
      "inputs": [],
      "name": "buyTokens",
      "outputs": [],
      "stateMutability": "payable",
      "type": "function",
      "payable": true
    },
    {
      "inputs": [],
      "name": "checkTokens",
      "outputs": [
        {
          "internalType": "uint256",
          "name": "",
          "type": "uint256"
        }
      ],
      "stateMutability": "view",
      "type": "function",
      "constant": true
    },
    {
      "inputs": [
        {
          "internalType": "string",
          "name": "_description",
          "type": "string"
        },
        {
          "internalType": "uint256",
          "name": "_votingPeriod",
          "type": "uint256"
        }
      ],
      "name": "createProposal",
      "outputs": [],
      "stateMutability": "payable",
      "type": "function",
      "payable": true
    },
    {
      "inputs": [
        {
          "internalType": "uint256",
          "name": "_proposalId",
          "type": "uint256"
        },
        {
          "internalType": "bool",
          "name": "voteInFavor",
          "type": "bool"
        }
      ],
      "name": "vote",
      "outputs": [],
      "stateMutability": "nonpayable",
      "type": "function"
    },
    {
      "inputs": [
        {
          "internalType": "uint256",
          "name": "_proposalId",
          "type": "uint256"
        }
      ],
      "name": "finalizeProposal",
      "outputs": [],
      "stateMutability": "nonpayable",
      "type": "function"
    },
    {
      "inputs": [],
      "name": "withdrawAllFunds",
      "outputs": [],
      "stateMutability": "nonpayable",
      "type": "function"
    },
    {
      "inputs": [
        {
          "internalType": "uint256",
          "name": "_newToken",
          "type": "uint256"
        }
      ],
      "name": "updateFreeTokens",
      "outputs": [],
      "stateMutability": "nonpayable",
      "type": "function"
    },
    {
      "inputs": [
        {
          "internalType": "uint256",
          "name": "_newPrice",
          "type": "uint256"
        }
      ],
      "name": "updateTokenPrice",
      "outputs": [],
      "stateMutability": "nonpayable",
      "type": "function"
    },
    {
      "inputs": [
        {
          "internalType": "uint256",
          "name": "_newFee",
          "type": "uint256"
        }
      ],
      "name": "updateProposalFee",
      "outputs": [],
      "stateMutability": "nonpayable",
      "type": "function"
    },
    {
      "inputs": [
        {
          "internalType": "address payable",
          "name": "_newOwner",
          "type": "address"
        }
      ],
      "name": "transferOwnership",
      "outputs": [],
      "stateMutability": "nonpayable",
      "type": "function"
    },
    {
      "inputs": [
        {
          "internalType": "uint256",
          "name": "_proposalId",
          "type": "uint256"
        }
      ],
      "name": "removeProposal",
      "outputs": [],
      "stateMutability": "nonpayable",
      "type": "function"
    }
  ],
  "bytecode": "0x60806040526002805534801561001457600080fd5b50600160008190555033600160006101000a81548173ffffffffffffffffffffffffffffffffffffffff021916908373ffffffffffffffffffffffffffffffffffffffff160217905550662386f26fc1000060038190555067016345785d8a00006004819055506000600581905550612ad8806100926000396000f3fe60806040526004361061012a5760003560e01c8063676c0d77116100ab578063c9d27afe1161006f578063c9d27afe146103b2578063ce606ee0146103db578063d0febe4c14610406578063e486033914610410578063f14d21811461044d578063f2fde38b146104645761012a565b8063676c0d77146102dd5780636f9fb98a14610306578063771c21f0146103315780637ff9b5961461035c578063c27cabb5146103875761012a565b80633ba18e88116100f25780633ba18e881461020e578063438596321461023757806349649fbf146102745780634ce4e6c71461028b5780635652077c146102b45761012a565b8063013cf08b1461012f5780631776f1d1146101735780632dfca4451461019c5780632e80d9b6146101c757806335facf78146101f2575b600080fd5b34801561013b57600080fd5b50610156600480360381019061015191906119a0565b61048d565b60405161016a989796959493929190611ac8565b60405180910390f35b34801561017f57600080fd5b5061019a600480360381019061019591906119a0565b610597565b005b3480156101a857600080fd5b506101b1610668565b6040516101be9190611b4d565b60405180910390f35b3480156101d357600080fd5b506101dc61066e565b6040516101e99190611b4d565b60405180910390f35b61020c60048036038101906102079190611c9d565b610673565b005b34801561021a57600080fd5b50610235600480360381019061023091906119a0565b610889565b005b34801561024357600080fd5b5061025e60048036038101906102599190611d25565b61095a565b60405161026b9190611d65565b60405180910390f35b34801561028057600080fd5b50610289610989565b005b34801561029757600080fd5b506102b260048036038101906102ad91906119a0565b610b09565b005b3480156102c057600080fd5b506102db60048036038101906102d691906119a0565b610dc0565b005b3480156102e957600080fd5b5061030460048036038101906102ff91906119a0565b610f86565b005b34801561031257600080fd5b5061031b611057565b6040516103289190611b4d565b60405180910390f35b34801561033d57600080fd5b5061034661105f565b6040516103539190611b4d565b60405180910390f35b34801561036857600080fd5b506103716110a6565b60405161037e9190611b4d565b60405180910390f35b34801561039357600080fd5b5061039c6110ac565b6040516103a99190611b4d565b60405180910390f35b3480156103be57600080fd5b506103d960048036038101906103d49190611dac565b6110b2565b005b3480156103e757600080fd5b506103f06113f0565b6040516103fd9190611e0d565b60405180910390f35b61040e611416565b005b34801561041c57600080fd5b5061043760048036038101906104329190611e28565b611524565b6040516104449190611b4d565b60405180910390f35b34801561045957600080fd5b5061046261153c565b005b34801561047057600080fd5b5061048b60048036038101906104869190611e81565b6116db565b005b60066020528060005260406000206000915090508060000160009054906101000a900473ffffffffffffffffffffffffffffffffffffffff16908060010180546104d690611edd565b80601f016020809104026020016040519081016040528092919081815260200182805461050290611edd565b801561054f5780601f106105245761010080835404028352916020019161054f565b820191906000526020600020905b81548152906001019060200180831161053257829003601f168201915b5050505050908060020154908060030154908060040154908060050154908060060160009054906101000a900460ff16908060060160019054906101000a900460ff16905088565b600160009054906101000a900473ffffffffffffffffffffffffffffffffffffffff1673ffffffffffffffffffffffffffffffffffffffff163373ffffffffffffffffffffffffffffffffffffffff1614610627576040517f08c379a000000000000000000000000000000000000000000000000000000000815260040161061e90611f5a565b60405180910390fd5b806004819055507fb2163fea967470e693c56560199ca6bd539b9f4628c38eb790263909078a5d1c8160405161065d9190611b4d565b60405180910390a150565b60055481565b600581565b61067b6118a0565b60045434146106bf576040517f08c379a00000000000000000000000000000000000000000000000000000000081526004016106b690611fc6565b60405180910390fd5b600062015180826106d09190612015565b426106db9190612057565b90506040518061010001604052803373ffffffffffffffffffffffffffffffffffffffff1681526020018481526020018281526020016000815260200160008152602001600081526020016000151581526020016000151581525060066000600554815260200190815260200160002060008201518160000160006101000a81548173ffffffffffffffffffffffffffffffffffffffff021916908373ffffffffffffffffffffffffffffffffffffffff16021790555060208201518160010190816107a79190612237565b5060408201518160020155606082015181600301556080820151816004015560a0820151816005015560c08201518160060160006101000a81548160ff02191690831515021790555060e08201518160060160016101000a81548160ff0219169083151502179055509050503373ffffffffffffffffffffffffffffffffffffffff166005547f7585f467599d0f008985f231af99293be388626ac16ca59505c2f8f88969cd638560405161085c9190612309565b60405180910390a3600560008154809291906108779061232b565b9190505550506108856118ef565b5050565b600160009054906101000a900473ffffffffffffffffffffffffffffffffffffffff1673ffffffffffffffffffffffffffffffffffffffff163373ffffffffffffffffffffffffffffffffffffffff1614610919576040517f08c379a000000000000000000000000000000000000000000000000000000000815260040161091090611f5a565b60405180910390fd5b806002819055507f1ee05a08450f12b95ea985bf239edfc22050f603e6ca5d33b4ef67bc820c2e648160405161094f9190611b4d565b60405180910390a150565b60096020528160005260406000206020528060005260406000206000915091509054906101000a900460ff1681565b600160009054906101000a900473ffffffffffffffffffffffffffffffffffffffff1673ffffffffffffffffffffffffffffffffffffffff163373ffffffffffffffffffffffffffffffffffffffff1614610a19576040517f08c379a0000000000000000000000000000000000000000000000000000000008152600401610a1090611f5a565b60405180910390fd5b610a216118a0565b60004711610a64576040517f08c379a0000000000000000000000000000000000000000000000000000000008152600401610a5b906123bf565b60405180910390fd5b60004790503373ffffffffffffffffffffffffffffffffffffffff166108fc829081150290604051600060405180830381858888f19350505050158015610aaf573d6000803e3d6000fd5b503373ffffffffffffffffffffffffffffffffffffffff167feaff4b37086828766ad3268786972c0cd24259d4c87a80f9d3963a3c3d999b0d82604051610af69190611b4d565b60405180910390a250610b076118ef565b565b600160009054906101000a900473ffffffffffffffffffffffffffffffffffffffff1673ffffffffffffffffffffffffffffffffffffffff163373ffffffffffffffffffffffffffffffffffffffff1614610b99576040517f08c379a0000000000000000000000000000000000000000000000000000000008152600401610b9090611f5a565b60405180910390fd5b60006006600083815260200190815260200160002090506005548210610bf4576040517f08c379a0000000000000000000000000000000000000000000000000000000008152600401610beb9061242b565b60405180910390fd5b8060060160019054906101000a900460ff1615610c46576040517f08c379a0000000000000000000000000000000000000000000000000000000008152600401610c3d90612497565b60405180910390fd5b6000816005015414610c8d576040517f08c379a0000000000000000000000000000000000000000000000000000000008152600401610c8490612529565b60405180910390fd5b8060000160009054906101000a900473ffffffffffffffffffffffffffffffffffffffff1673ffffffffffffffffffffffffffffffffffffffff166108fc6004549081150290604051600060405180830381858888f19350505050158015610cf9573d6000803e3d6000fd5b5060066000838152602001908152602001600020600080820160006101000a81549073ffffffffffffffffffffffffffffffffffffffff0219169055600182016000610d4591906118f9565b60028201600090556003820160009055600482016000905560058201600090556006820160006101000a81549060ff02191690556006820160016101000a81549060ff02191690555050817fd412ca680e6dcd7bc731a6c8d9ad74bea65b8d0dd85d47d29377d99c53326cf760405160405180910390a25050565b60006006600083815260200190815260200160002090508060020154421015610e1e576040517f08c379a0000000000000000000000000000000000000000000000000000000008152600401610e1590612595565b60405180910390fd5b8060060160019054906101000a900460ff1615610e70576040517f08c379a0000000000000000000000000000000000000000000000000000000008152600401610e6790612627565b60405180910390fd5b600581600501541015610ef55760008160060160006101000a81548160ff02191690831515021790555060018160060160016101000a81548160ff021916908315150217905550817fb5ac567fcf1b069e0235e4f16734625c6cf54c1b40517fd9eb85517f6e1265a76000604051610ee89190611d65565b60405180910390a2610f82565b80600401548160030154118160060160006101000a81548160ff02191690831515021790555060018160060160016101000a81548160ff021916908315150217905550817fb5ac567fcf1b069e0235e4f16734625c6cf54c1b40517fd9eb85517f6e1265a78260060160009054906101000a900460ff16604051610f799190611d65565b60405180910390a25b5050565b600160009054906101000a900473ffffffffffffffffffffffffffffffffffffffff1673ffffffffffffffffffffffffffffffffffffffff163373ffffffffffffffffffffffffffffffffffffffff1614611016576040517f08c379a000000000000000000000000000000000000000000000000000000000815260040161100d90611f5a565b60405180910390fd5b806003819055507f6b361c807733cc94a3b7bda39c1c94dcc0511e91aa47b0f7f918068e939768908160405161104c9190611b4d565b60405180910390a150565b600047905090565b6000600760003373ffffffffffffffffffffffffffffffffffffffff1673ffffffffffffffffffffffffffffffffffffffff16815260200190815260200160002054905090565b60035481565b60045481565b6110ba6118a0565b60006006600084815260200190815260200160002090506005548310611115576040517f08c379a000000000000000000000000000000000000000000000000000000000815260040161110c90612693565b60405180910390fd5b8060020154421061115b576040517f08c379a0000000000000000000000000000000000000000000000000000000008152600401611152906126ff565b60405180910390fd5b6001600760003373ffffffffffffffffffffffffffffffffffffffff1673ffffffffffffffffffffffffffffffffffffffff1681526020019081526020016000205410156111de576040517f08c379a00000000000000000000000000000000000000000000000000000000081526004016111d590612791565b60405180910390fd5b6009600084815260200190815260200160002060003373ffffffffffffffffffffffffffffffffffffffff1673ffffffffffffffffffffffffffffffffffffffff16815260200190815260200160002060009054906101000a900460ff161561127c576040517f08c379a000000000000000000000000000000000000000000000000000000000815260040161127390612823565b60405180910390fd5b81156112a1578060030160008154809291906112979061232b565b91905055506112bc565b8060040160008154809291906112b69061232b565b91905055505b8060050160008154809291906112d19061232b565b919050555060016009600085815260200190815260200160002060003373ffffffffffffffffffffffffffffffffffffffff1673ffffffffffffffffffffffffffffffffffffffff16815260200190815260200160002060006101000a81548160ff021916908315150217905550600760003373ffffffffffffffffffffffffffffffffffffffff1673ffffffffffffffffffffffffffffffffffffffff168152602001908152602001600020600081548092919061138f90612843565b91905055503373ffffffffffffffffffffffffffffffffffffffff16837ff2913dbe661ee2acc4a046d8fbcdc792373bda34c41c6086484b5345e5785e5f846040516113db9190611d65565b60405180910390a3506113ec6118ef565b5050565b600160009054906101000a900473ffffffffffffffffffffffffffffffffffffffff1681565b61141e6118a0565b600354341015611463576040517f08c379a000000000000000000000000000000000000000000000000000000000815260040161145a906128b8565b60405180910390fd5b6000600354346114739190612907565b905080600760003373ffffffffffffffffffffffffffffffffffffffff1673ffffffffffffffffffffffffffffffffffffffff16815260200190815260200160002060008282546114c49190612057565b925050819055503373ffffffffffffffffffffffffffffffffffffffff167f8f28852646c20cc973d3a8218f7eefed58c25c909f78f0265af4818c3d4dc271826040516115119190611b4d565b60405180910390a2506115226118ef565b565b60076020528060005260406000206000915090505481565b6115446118a0565b600860003373ffffffffffffffffffffffffffffffffffffffff1673ffffffffffffffffffffffffffffffffffffffff16815260200190815260200160002060009054906101000a900460ff16156115d1576040517f08c379a00000000000000000000000000000000000000000000000000000000081526004016115c8906129aa565b60405180910390fd5b600254600760003373ffffffffffffffffffffffffffffffffffffffff1673ffffffffffffffffffffffffffffffffffffffff16815260200190815260200160002060008282546116229190612057565b925050819055506001600860003373ffffffffffffffffffffffffffffffffffffffff1673ffffffffffffffffffffffffffffffffffffffff16815260200190815260200160002060006101000a81548160ff0219169083151502179055503373ffffffffffffffffffffffffffffffffffffffff167fabf75f16e73b7f5431f32f41659dd422ebba6a2b2baf206db08f61038d1337276002546040516116c99190611b4d565b60405180910390a26116d96118ef565b565b600160009054906101000a900473ffffffffffffffffffffffffffffffffffffffff1673ffffffffffffffffffffffffffffffffffffffff163373ffffffffffffffffffffffffffffffffffffffff161461176b576040517f08c379a000000000000000000000000000000000000000000000000000000000815260040161176290611f5a565b60405180910390fd5b600073ffffffffffffffffffffffffffffffffffffffff168173ffffffffffffffffffffffffffffffffffffffff16036117da576040517f08c379a00000000000000000000000000000000000000000000000000000000081526004016117d190612a16565b60405180910390fd5b6000600160009054906101000a900473ffffffffffffffffffffffffffffffffffffffff16905081600160006101000a81548173ffffffffffffffffffffffffffffffffffffffff021916908373ffffffffffffffffffffffffffffffffffffffff1602179055508173ffffffffffffffffffffffffffffffffffffffff168173ffffffffffffffffffffffffffffffffffffffff167f8be0079c531659141344cd1fd0a4f28419497f9722a3daafe3b4186f6b6457e060405160405180910390a35050565b6002600054036118e5576040517f08c379a00000000000000000000000000000000000000000000000000000000081526004016118dc90612a82565b60405180910390fd5b6002600081905550565b6001600081905550565b50805461190590611edd565b6000825580601f106119175750611936565b601f0160209004906000526020600020908101906119359190611939565b5b50565b5b8082111561195257600081600090555060010161193a565b5090565b6000604051905090565b600080fd5b600080fd5b6000819050919050565b61197d8161196a565b811461198857600080fd5b50565b60008135905061199a81611974565b92915050565b6000602082840312156119b6576119b5611960565b5b60006119c48482850161198b565b91505092915050565b600073ffffffffffffffffffffffffffffffffffffffff82169050919050565b60006119f8826119cd565b9050919050565b611a08816119ed565b82525050565b600081519050919050565b600082825260208201905092915050565b60005b83811015611a48578082015181840152602081019050611a2d565b60008484015250505050565b6000601f19601f8301169050919050565b6000611a7082611a0e565b611a7a8185611a19565b9350611a8a818560208601611a2a565b611a9381611a54565b840191505092915050565b611aa78161196a565b82525050565b60008115159050919050565b611ac281611aad565b82525050565b600061010082019050611ade600083018b6119ff565b8181036020830152611af0818a611a65565b9050611aff6040830189611a9e565b611b0c6060830188611a9e565b611b196080830187611a9e565b611b2660a0830186611a9e565b611b3360c0830185611ab9565b611b4060e0830184611ab9565b9998505050505050505050565b6000602082019050611b626000830184611a9e565b92915050565b600080fd5b600080fd5b7f4e487b7100000000000000000000000000000000000000000000000000000000600052604160045260246000fd5b611baa82611a54565b810181811067ffffffffffffffff82111715611bc957611bc8611b72565b5b80604052505050565b6000611bdc611956565b9050611be88282611ba1565b919050565b600067ffffffffffffffff821115611c0857611c07611b72565b5b611c1182611a54565b9050602081019050919050565b82818337600083830152505050565b6000611c40611c3b84611bed565b611bd2565b905082815260208101848484011115611c5c57611c5b611b6d565b5b611c67848285611c1e565b509392505050565b600082601f830112611c8457611c83611b68565b5b8135611c94848260208601611c2d565b91505092915050565b60008060408385031215611cb457611cb3611960565b5b600083013567ffffffffffffffff811115611cd257611cd1611965565b5b611cde85828601611c6f565b9250506020611cef8582860161198b565b9150509250929050565b611d02816119ed565b8114611d0d57600080fd5b50565b600081359050611d1f81611cf9565b92915050565b60008060408385031215611d3c57611d3b611960565b5b6000611d4a8582860161198b565b9250506020611d5b85828601611d10565b9150509250929050565b6000602082019050611d7a6000830184611ab9565b92915050565b611d8981611aad565b8114611d9457600080fd5b50565b600081359050611da681611d80565b92915050565b60008060408385031215611dc357611dc2611960565b5b6000611dd18582860161198b565b9250506020611de285828601611d97565b9150509250929050565b6000611df7826119cd565b9050919050565b611e0781611dec565b82525050565b6000602082019050611e226000830184611dfe565b92915050565b600060208284031215611e3e57611e3d611960565b5b6000611e4c84828501611d10565b91505092915050565b611e5e81611dec565b8114611e6957600080fd5b50565b600081359050611e7b81611e55565b92915050565b600060208284031215611e9757611e96611960565b5b6000611ea584828501611e6c565b91505092915050565b7f4e487b7100000000000000000000000000000000000000000000000000000000600052602260045260246000fd5b60006002820490506001821680611ef557607f821691505b602082108103611f0857611f07611eae565b5b50919050565b7f596f7520617265206e6f7420746865206f776e65720000000000000000000000600082015250565b6000611f44601583611a19565b9150611f4f82611f0e565b602082019050919050565b60006020820190508181036000830152611f7381611f37565b9050919050565b7f506c656173652073656e642070726f7065722070726f706f73616c2066656521600082015250565b6000611fb0602083611a19565b9150611fbb82611f7a565b602082019050919050565b60006020820190508181036000830152611fdf81611fa3565b9050919050565b7f4e487b7100000000000000000000000000000000000000000000000000000000600052601160045260246000fd5b60006120208261196a565b915061202b8361196a565b92508282026120398161196a565b915082820484148315176120505761204f611fe6565b5b5092915050565b60006120628261196a565b915061206d8361196a565b925082820190508082111561208557612084611fe6565b5b92915050565b60008190508160005260206000209050919050565b60006020601f8301049050919050565b600082821b905092915050565b6000600883026120ed7fffffffffffffffffffffffffffffffffffffffffffffffffffffffffffffffff826120b0565b6120f786836120b0565b95508019841693508086168417925050509392505050565b6000819050919050565b600061213461212f61212a8461196a565b61210f565b61196a565b9050919050565b6000819050919050565b61214e83612119565b61216261215a8261213b565b8484546120bd565b825550505050565b600090565b61217761216a565b612182818484612145565b505050565b5b818110156121a65761219b60008261216f565b600181019050612188565b5050565b601f8211156121eb576121bc8161208b565b6121c5846120a0565b810160208510156121d4578190505b6121e86121e0856120a0565b830182612187565b50505b505050565b600082821c905092915050565b600061220e600019846008026121f0565b1980831691505092915050565b600061222783836121fd565b9150826002028217905092915050565b61224082611a0e565b67ffffffffffffffff81111561225957612258611b72565b5b6122638254611edd565b61226e8282856121aa565b600060209050601f8311600181146122a1576000841561228f578287015190505b612299858261221b565b865550612301565b601f1984166122af8661208b565b60005b828110156122d7578489015182556001820191506020850194506020810190506122b2565b868310156122f457848901516122f0601f8916826121fd565b8355505b6001600288020188555050505b505050505050565b600060208201905081810360008301526123238184611a65565b905092915050565b60006123368261196a565b91507fffffffffffffffffffffffffffffffffffffffffffffffffffffffffffffffff820361236857612367611fe6565b5b600182019050919050565b7f4e6f20616d6f756e7420746f2077697468647261772100000000000000000000600082015250565b60006123a9601683611a19565b91506123b482612373565b602082019050919050565b600060208201905081810360008301526123d88161239c565b9050919050565b7f496e76616c69642070726f706f73616c20496400000000000000000000000000600082015250565b6000612415601383611a19565b9150612420826123df565b602082019050919050565b6000602082019050818103600083015261244481612408565b9050919050565b7f43616e6e6f742072656d6f76652066696e616c697a65642070726f706f73616c600082015250565b6000612481602083611a19565b915061248c8261244b565b602082019050919050565b600060208201905081810360008301526124b081612474565b9050919050565b7f43616e6e6f742072656d6f76652070726f706f73616c207769746820766f746560008201527f7273000000000000000000000000000000000000000000000000000000000000602082015250565b6000612513602283611a19565b915061251e826124b7565b604082019050919050565b6000602082019050818103600083015261254281612506565b9050919050565b7f54686520766f74696e6720706572696f64206973206e6f74206f766572000000600082015250565b600061257f601d83611a19565b915061258a82612549565b602082019050919050565b600060208201905081810360008301526125ae81612572565b9050919050565b7f546869732070726f706f73616c2068617320616c7265616479206265656e206660008201527f696e616c69736564000000000000000000000000000000000000000000000000602082015250565b6000612611602883611a19565b915061261c826125b5565b604082019050919050565b6000602082019050818103600083015261264081612604565b9050919050565b7f496e76616c69642070726f706f73616c00000000000000000000000000000000600082015250565b600061267d601083611a19565b915061268882612647565b602082019050919050565b600060208201905081810360008301526126ac81612670565b9050919050565b7f566f74696e6720706572696f642068617320656e646564000000000000000000600082015250565b60006126e9601783611a19565b91506126f4826126b3565b602082019050919050565b60006020820190508181036000830152612718816126dc565b9050919050565b7f596f7520646f6e2774206861766520616e7920746f6b656e7320746f20766f7460008201527f6500000000000000000000000000000000000000000000000000000000000000602082015250565b600061277b602183611a19565b91506127868261271f565b604082019050919050565b600060208201905081810360008301526127aa8161276e565b9050919050565b7f596f75206861766520616c726561647920766f74656420666f7220746869732060008201527f70726f706f73616c000000000000000000000000000000000000000000000000602082015250565b600061280d602883611a19565b9150612818826127b1565b604082019050919050565b6000602082019050818103600083015261283c81612800565b9050919050565b600061284e8261196a565b91506000820361286157612860611fe6565b5b600182039050919050565b7f506c656173652073656e6420612070726f70657220616d6f756e740000000000600082015250565b60006128a2601b83611a19565b91506128ad8261286c565b602082019050919050565b600060208201905081810360008301526128d181612895565b9050919050565b7f4e487b7100000000000000000000000000000000000000000000000000000000600052601260045260246000fd5b60006129128261196a565b915061291d8361196a565b92508261292d5761292c6128d8565b5b828204905092915050565b7f596f75206861766520616c726561647920636c61696d656420796f757220667260008201527f656520746f6b656e730000000000000000000000000000000000000000000000602082015250565b6000612994602983611a19565b915061299f82612938565b604082019050919050565b600060208201905081810360008301526129c381612987565b9050919050565b7f4e6577206f776e657220697320746865207a65726f2061646472657373000000600082015250565b6000612a00601d83611a19565b9150612a0b826129ca565b602082019050919050565b60006020820190508181036000830152612a2f816129f3565b9050919050565b7f5265656e7472616e637947756172643a207265656e7472616e742063616c6c00600082015250565b6000612a6c601f83611a19565b9150612a7782612a36565b602082019050919050565b60006020820190508181036000830152612a9b81612a5f565b905091905056fea2646970667358221220ab7293c45bac94b46a11a472c33c30e22ebb35cdb3ce9524aeb5e5cbdecba8a264736f6c63430008140033",
  "immutableReferences": {},
  "source": "// SPDX-License-Identifier: UNLICENSED\r\npragma solidity 0.8.20;\r\n\r\nimport \"@openzeppelin/contracts/security/ReentrancyGuard.sol\";\r\n\r\ncontract Voting is ReentrancyGuard {\r\n    // State variables\r\n    address payable public contractOwner;\r\n    uint256 private freeTokens = 2;\r\n    uint256 public tokenPrice;\r\n    uint256 public proposalFee;\r\n    uint256 public proposalId;\r\n    uint256 public constant QUORUM = 5;\r\n   \r\n    constructor() {\r\n        contractOwner = payable(msg.sender);\r\n        tokenPrice = 0.01 ether;\r\n        proposalFee = 0.1 ether;\r\n        proposalId = 0;\r\n    }\r\n\r\n    modifier onlyOwner() {\r\n        require(msg.sender == contractOwner, \"You are not the owner\");\r\n        _;\r\n    }\r\n\r\n    // Main proposal structure for DAO\r\n    struct Proposal {\r\n        address proposalOwner;\r\n        string description;\r\n        uint256 votingPeriod;\r\n        uint256 votesInFavor;\r\n        uint256 votesAgainst;\r\n        uint256 noOfVoters;\r\n        bool isApproved;\r\n        bool isFinalized;\r\n    }\r\n\r\n    // Mappings\r\n    mapping(uint256 => Proposal) public proposals;\r\n    mapping(address => uint256) public tokens;\r\n    mapping(address => bool) private hasClaimedFreeTokens;\r\n    mapping(uint256 => mapping(address => bool)) public hasVoted;\r\n\r\n    // Events\r\n    event FreeTokensClaimed(address indexed user, uint256 amount);\r\n    event TokensPurchased(address indexed user, uint256 amount);\r\n    event ProposalCreated(uint256 indexed proposalId, address indexed proposalOwner, string description);\r\n    event Voted(uint256 indexed proposalId, address indexed voter, bool inFavor);\r\n    event ProposalFinalized(uint256 indexed proposalId, bool isApproved);\r\n    event FundsWithdrawn(address indexed owner, uint256 amount);\r\n    event FreeTokensUpdated(uint256 newAmount);\r\n    event TokenPriceUpdated(uint256 newPrice);\r\n    event ProposalFeeUpdated(uint256 newFee);\r\n    event OwnershipTransferred(address indexed previousOwner, address indexed newOwner);\r\n    event ProposalRemoved(uint256 indexed proposalId);\r\n\r\n    function getContractBalance() public view returns (uint256) {\r\n        return address(this).balance;\r\n    }\r\n\r\n    //------------------------------User functions---------------------------------------------------------//\r\n\r\n    function claimFreeTokens() public nonReentrant {\r\n        require(!hasClaimedFreeTokens[msg.sender], \"You have already claimed your free tokens\");\r\n\r\n        tokens[msg.sender] += freeTokens;\r\n        hasClaimedFreeTokens[msg.sender] = true;\r\n        emit FreeTokensClaimed(msg.sender, freeTokens);\r\n    }\r\n\r\n    function buyTokens() public payable nonReentrant {\r\n        require(msg.value >= tokenPrice, \"Please send a proper amount\");\r\n        \r\n        uint256 addTokens = msg.value / tokenPrice;\r\n        tokens[msg.sender] += addTokens;\r\n        emit TokensPurchased(msg.sender, addTokens);\r\n    }\r\n\r\n    function checkTokens() public view returns (uint256) {\r\n        return tokens[msg.sender];\r\n    }\r\n\r\n    function createProposal(string memory _description, uint256 _votingPeriod) public payable nonReentrant {\r\n        require(msg.value == proposalFee, \"Please send proper proposal fee!\");\r\n        uint256 votingPeriodEnd = block.timestamp + (_votingPeriod * 1 days);\r\n        proposals[proposalId] = Proposal(\r\n            msg.sender,\r\n            _description,\r\n            votingPeriodEnd,\r\n            0,\r\n            0,\r\n            0,\r\n            false,\r\n            false\r\n        );\r\n        emit ProposalCreated(proposalId, msg.sender, _description);\r\n        proposalId++;\r\n    }\r\n\r\n    function vote(uint256 _proposalId, bool voteInFavor) public nonReentrant {\r\n        Proposal storage proposal = proposals[_proposalId];\r\n\r\n        require(_proposalId < proposalId, \"Invalid proposal\");\r\n        require(block.timestamp < proposal.votingPeriod, \"Voting period has ended\");\r\n        require(tokens[msg.sender] >= 1, \"You don't have any tokens to vote\");\r\n        require(!hasVoted[_proposalId][msg.sender], \"You have already voted for this proposal\");\r\n        \r\n        if (voteInFavor) {\r\n            proposal.votesInFavor++;\r\n        } else {\r\n            proposal.votesAgainst++;\r\n        }\r\n        proposal.noOfVoters++;\r\n        hasVoted[_proposalId][msg.sender] = true;\r\n        tokens[msg.sender]--;\r\n        \r\n        emit Voted(_proposalId, msg.sender, voteInFavor);\r\n    }\r\n\r\n    function finalizeProposal(uint256 _proposalId) public {\r\n        Proposal storage proposal = proposals[_proposalId];\r\n        \r\n        require(block.timestamp >= proposal.votingPeriod, \"The voting period is not over\");\r\n        require(!proposal.isFinalized, \"This proposal has already been finalised\");\r\n        \r\n        //Quorum check\r\n        if (proposal.noOfVoters < QUORUM){\r\n            proposal.isApproved = false;\r\n            proposal.isFinalized = true;\r\n            emit ProposalFinalized(_proposalId, false);\r\n        }\r\n        else{\r\n        proposal.isApproved = proposal.votesInFavor > proposal.votesAgainst;\r\n        proposal.isFinalized = true;\r\n        emit ProposalFinalized(_proposalId, proposal.isApproved);\r\n        }\r\n    }\r\n\r\n    //----------------------------------Admin functions----------------------------------------------------//\r\n\r\n    function withdrawAllFunds() public onlyOwner nonReentrant {\r\n        require(address(this).balance > 0, \"No amount to withdraw!\");\r\n        uint256 amount = address(this).balance;\r\n        payable(msg.sender).transfer(amount);\r\n        emit FundsWithdrawn(msg.sender, amount);\r\n    }\r\n\r\n    function updateFreeTokens(uint256 _newToken) public onlyOwner {\r\n        freeTokens = _newToken;\r\n        emit FreeTokensUpdated(_newToken);\r\n    }\r\n\r\n    function updateTokenPrice(uint256 _newPrice) public onlyOwner {\r\n        tokenPrice = _newPrice;\r\n        emit TokenPriceUpdated(_newPrice);\r\n    }\r\n\r\n    function updateProposalFee(uint256 _newFee) public onlyOwner {\r\n        proposalFee = _newFee;\r\n        emit ProposalFeeUpdated(_newFee);\r\n    }\r\n\r\n    function transferOwnership(address payable _newOwner) public onlyOwner {\r\n        require(_newOwner != address(0), \"New owner is the zero address\");\r\n        address oldOwner = contractOwner;\r\n        contractOwner = _newOwner;\r\n        emit OwnershipTransferred(oldOwner, _newOwner);\r\n    }\r\n\r\n    function removeProposal(uint256 _proposalId) public onlyOwner {\r\n        Proposal storage proposalToRemove = proposals[_proposalId];\r\n        require(_proposalId < proposalId, \"Invalid proposal Id\");\r\n        require(!proposalToRemove.isFinalized, \"Cannot remove finalized proposal\");\r\n        require(proposalToRemove.noOfVoters == 0, \"Cannot remove proposal with voters\");\r\n\r\n        payable(proposalToRemove.proposalOwner).transfer(proposalFee);\r\n    \r\n        delete proposals[_proposalId];\r\n        emit ProposalRemoved(_proposalId);\r\n    }\r\n}\r\n\r\n// contractAddress = \"\";",
  "sourcePath": "M:\\Blockchain Complete Developemnt Bootcamp\\Voting Dapp\\contracts\\Voting.sol",
  "compiler": {
    "name": "solc",
    "version": "0.8.20+commit.a1b79de6.Emscripten.clang"
  },
  "schemaVersion": "3.4.16",
  "updatedAt": "2024-09-21T10:32:15.420Z",
  "networkType": "ethereum",
  "devdoc": {
    "kind": "dev",
    "methods": {},
    "version": 1
  },
  "userdoc": {
    "kind": "user",
    "methods": {},
    "version": 1
  }
}